{
  "contractName": "Here",
  "abi": [
    {
      "constant": true,
      "inputs": [
        {
          "name": "",
          "type": "uint256"
        }
      ],
      "name": "placeToOwner",
      "outputs": [
        {
          "name": "",
          "type": "address"
        }
      ],
      "payable": false,
      "stateMutability": "view",
      "type": "function"
    },
    {
      "constant": true,
      "inputs": [],
      "name": "owner",
      "outputs": [
        {
          "name": "",
          "type": "address"
        }
      ],
      "payable": false,
      "stateMutability": "view",
      "type": "function"
    },
    {
      "constant": true,
      "inputs": [
        {
          "name": "",
          "type": "uint256"
        }
      ],
      "name": "photos",
      "outputs": [
        {
          "name": "",
          "type": "string"
        }
      ],
      "payable": false,
      "stateMutability": "view",
      "type": "function"
    },
    {
      "constant": true,
      "inputs": [],
      "name": "totalPlace",
      "outputs": [
        {
          "name": "",
          "type": "uint256"
        }
      ],
      "payable": false,
      "stateMutability": "view",
      "type": "function"
    },
    {
      "constant": true,
      "inputs": [
        {
          "name": "",
          "type": "uint256"
        }
      ],
      "name": "places",
      "outputs": [
        {
          "name": "user_id",
          "type": "address"
        },
        {
          "name": "content",
          "type": "string"
        },
        {
          "name": "_to",
          "type": "string"
        },
        {
          "name": "photo",
          "type": "string"
        },
        {
          "name": "location",
          "type": "string"
        },
        {
          "name": "createTime",
          "type": "uint32"
        },
        {
          "name": "status",
          "type": "uint32"
        }
      ],
      "payable": false,
      "stateMutability": "view",
      "type": "function"
    },
    {
      "constant": false,
      "inputs": [
        {
          "name": "newOwner",
          "type": "address"
        }
      ],
      "name": "transferOwnership",
      "outputs": [],
      "payable": false,
      "stateMutability": "nonpayable",
      "type": "function"
    },
    {
      "anonymous": false,
      "inputs": [
        {
          "indexed": false,
          "name": "_id",
          "type": "uint256"
        },
        {
          "indexed": false,
          "name": "_content",
          "type": "string"
        },
        {
          "indexed": false,
          "name": "_to",
          "type": "string"
        },
        {
          "indexed": false,
          "name": "_photo",
          "type": "string"
        },
        {
          "indexed": false,
          "name": "_location",
          "type": "string"
        }
      ],
      "name": "NewPlace",
      "type": "event"
    },
    {
      "anonymous": false,
      "inputs": [
        {
          "indexed": true,
          "name": "previousOwner",
          "type": "address"
        },
        {
          "indexed": true,
          "name": "newOwner",
          "type": "address"
        }
      ],
      "name": "OwnershipTransferred",
      "type": "event"
    },
    {
      "constant": false,
      "inputs": [
        {
          "name": "_content",
          "type": "string"
        },
        {
          "name": "_to",
          "type": "string"
        },
        {
          "name": "_photo",
          "type": "string"
        },
        {
          "name": "_location",
          "type": "string"
        },
        {
          "name": "_id",
          "type": "address"
        }
      ],
      "name": "_createPlace",
      "outputs": [
        {
          "name": "id",
          "type": "uint256"
        }
      ],
      "payable": false,
      "stateMutability": "nonpayable",
      "type": "function"
    },
    {
      "constant": false,
      "inputs": [],
      "name": "checkInfo",
      "outputs": [
        {
          "name": "balance",
          "type": "uint256"
        },
        {
          "name": "placeCount",
          "type": "uint256"
        }
      ],
      "payable": false,
      "stateMutability": "nonpayable",
      "type": "function"
    },
    {
      "constant": false,
      "inputs": [
        {
          "name": "index",
          "type": "uint256"
        }
      ],
      "name": "checkPlace",
      "outputs": [
        {
          "name": "content",
          "type": "string"
        },
        {
          "name": "photo",
          "type": "string"
        },
        {
          "name": "location",
          "type": "string"
        },
        {
          "name": "createTime",
          "type": "uint256"
        }
      ],
      "payable": false,
      "stateMutability": "nonpayable",
      "type": "function"
    },
    {
      "constant": false,
      "inputs": [
        {
          "name": "_owner",
          "type": "address"
        }
      ],
      "name": "getPlaceByOwner",
      "outputs": [
        {
          "name": "",
          "type": "uint256[]"
        }
      ],
      "payable": false,
      "stateMutability": "nonpayable",
      "type": "function"
    }
  ],
  "bytecode": "0x6060604052336000806101000a81548173ffffffffffffffffffffffffffffffffffffffff021916908373ffffffffffffffffffffffffffffffffffffffff16021790555061177a806100536000396000f3006060604052600436106100a4576000357c0100000000000000000000000000000000000000000000000000000000900463ffffffff1680630c4e1760146100a957806333cc41eb14610137578063632ad5e01461019a5780636f787cab146102f357806385a962581461046e5780638da5cb5b1461049e578063af2a5d6f146104f3578063d6b650df1461058f578063e557bb4e146105b8578063f2fde38b14610865575b600080fd5b34156100b457600080fd5b6100e0600480803573ffffffffffffffffffffffffffffffffffffffff1690602001909190505061089e565b6040518080602001828103825283818151815260200191508051906020019060200280838360005b83811015610123578082015181840152602081019050610108565b505050509050019250505060405180910390f35b341561014257600080fd5b61015860048080359060200190919050506109cc565b604051808273ffffffffffffffffffffffffffffffffffffffff1673ffffffffffffffffffffffffffffffffffffffff16815260200191505060405180910390f35b34156101a557600080fd5b6102dd600480803590602001908201803590602001908080601f0160208091040260200160405190810160405280939291908181526020018383808284378201915050505050509190803590602001908201803590602001908080601f0160208091040260200160405190810160405280939291908181526020018383808284378201915050505050509190803590602001908201803590602001908080601f0160208091040260200160405190810160405280939291908181526020018383808284378201915050505050509190803590602001908201803590602001908080601f0160208091040260200160405190810160405280939291908181526020018383808284378201915050505050509190803573ffffffffffffffffffffffffffffffffffffffff169060200190919050506109ff565b6040518082815260200191505060405180910390f35b34156102fe57600080fd5b6103146004808035906020019091905050610e37565b60405180806020018060200180602001858152602001848103845288818151815260200191508051906020019080838360005b83811015610362578082015181840152602081019050610347565b50505050905090810190601f16801561038f5780820380516001836020036101000a031916815260200191505b50848103835287818151815260200191508051906020019080838360005b838110156103c85780820151818401526020810190506103ad565b50505050905090810190601f1680156103f55780820380516001836020036101000a031916815260200191505b50848103825286818151815260200191508051906020019080838360005b8381101561042e578082015181840152602081019050610413565b50505050905090810190601f16801561045b5780820380516001836020036101000a031916815260200191505b5097505050505050505060405180910390f35b341561047957600080fd5b6104816111d8565b604051808381526020018281526020019250505060405180910390f35b34156104a957600080fd5b6104b16111fe565b604051808273ffffffffffffffffffffffffffffffffffffffff1673ffffffffffffffffffffffffffffffffffffffff16815260200191505060405180910390f35b34156104fe57600080fd5b6105146004808035906020019091905050611223565b6040518080602001828103825283818151815260200191508051906020019080838360005b83811015610554578082015181840152602081019050610539565b50505050905090810190601f1680156105815780820380516001836020036101000a031916815260200191505b509250505060405180910390f35b341561059a57600080fd5b6105a26112df565b6040518082815260200191505060405180910390f35b34156105c357600080fd5b6105d960048080359060200190919050506112e5565b604051808873ffffffffffffffffffffffffffffffffffffffff1673ffffffffffffffffffffffffffffffffffffffff168152602001806020018060200180602001806020018763ffffffff1663ffffffff1681526020018663ffffffff1663ffffffff16815260200185810385528b8181546001816001161561010002031660029004815260200191508054600181600116156101000203166002900480156106c45780601f10610699576101008083540402835291602001916106c4565b820191906000526020600020905b8154815290600101906020018083116106a757829003601f168201915b505085810384528a8181546001816001161561010002031660029004815260200191508054600181600116156101000203166002900480156107475780601f1061071c57610100808354040283529160200191610747565b820191906000526020600020905b81548152906001019060200180831161072a57829003601f168201915b50508581038352898181546001816001161561010002031660029004815260200191508054600181600116156101000203166002900480156107ca5780601f1061079f576101008083540402835291602001916107ca565b820191906000526020600020905b8154815290600101906020018083116107ad57829003601f168201915b505085810382528881815460018160011615610100020316600290048152602001915080546001816001161561010002031660029004801561084d5780601f106108225761010080835404028352916020019161084d565b820191906000526020600020905b81548152906001019060200180831161083057829003601f168201915b50509b50505050505050505050505060405180910390f35b341561087057600080fd5b61089c600480803573ffffffffffffffffffffffffffffffffffffffff16906020019091905050611372565b005b6108a66114c7565b6108ae6114c7565b600080600460008673ffffffffffffffffffffffffffffffffffffffff1673ffffffffffffffffffffffffffffffffffffffff168152602001908152602001600020546040518059106108fe5750595b9080825280602002602001820160405250925060009150600090505b6001805490508110156109c1578473ffffffffffffffffffffffffffffffffffffffff166003600083815260200190815260200160002060009054906101000a900473ffffffffffffffffffffffffffffffffffffffff1673ffffffffffffffffffffffffffffffffffffffff1614156109b45780838381518110151561099d57fe5b906020019060200201818152505081806001019250505b808060010191505061091a565b829350505050919050565b60036020528060005260406000206000915054906101000a900473ffffffffffffffffffffffffffffffffffffffff1681565b60006001808054806001018281610a1691906114db565b9160005260206000209060060201600060e0604051908101604052808773ffffffffffffffffffffffffffffffffffffffff1681526020018b81526020018a81526020018981526020018881526020014263ffffffff168152602001600063ffffffff16815250909190915060008201518160000160006101000a81548173ffffffffffffffffffffffffffffffffffffffff021916908373ffffffffffffffffffffffffffffffffffffffff1602179055506020820151816001019080519060200190610ae592919061150d565b506040820151816002019080519060200190610b0292919061150d565b506060820151816003019080519060200190610b1f92919061150d565b506080820151816004019080519060200190610b3c92919061150d565b5060a08201518160050160006101000a81548163ffffffff021916908363ffffffff16021790555060c08201518160050160046101000a81548163ffffffff021916908363ffffffff1602179055505050039050336003600083815260200190815260200160002060006101000a81548173ffffffffffffffffffffffffffffffffffffffff021916908373ffffffffffffffffffffffffffffffffffffffff160217905550600460003373ffffffffffffffffffffffffffffffffffffffff1673ffffffffffffffffffffffffffffffffffffffff168152602001908152602001600020600081548092919060010191905055506005600081548092919060010191905055507f399cf616902b524290b5289b490a835abe87fee2ed32726aaff46ca1020c014781878787876040518086815260200180602001806020018060200180602001858103855289818151815260200191508051906020019080838360005b83811015610cbb578082015181840152602081019050610ca0565b50505050905090810190601f168015610ce85780820380516001836020036101000a031916815260200191505b50858103845288818151815260200191508051906020019080838360005b83811015610d21578082015181840152602081019050610d06565b50505050905090810190601f168015610d4e5780820380516001836020036101000a031916815260200191505b50858103835287818151815260200191508051906020019080838360005b83811015610d87578082015181840152602081019050610d6c565b50505050905090810190601f168015610db45780820380516001836020036101000a031916815260200191505b50858103825286818151815260200191508051906020019080838360005b83811015610ded578082015181840152602081019050610dd2565b50505050905090810190601f168015610e1a5780820380516001836020036101000a031916815260200191505b50995050505050505050505060405180910390a195945050505050565b610e3f61158d565b610e4761158d565b610e4f61158d565b6000610e596115a1565b600186815481101515610e6857fe5b906000526020600020906006020160e060405190810160405290816000820160009054906101000a900473ffffffffffffffffffffffffffffffffffffffff1673ffffffffffffffffffffffffffffffffffffffff1673ffffffffffffffffffffffffffffffffffffffff168152602001600182018054600181600116156101000203166002900480601f016020809104026020016040519081016040528092919081815260200182805460018160011615610100020316600290048015610f715780601f10610f4657610100808354040283529160200191610f71565b820191906000526020600020905b815481529060010190602001808311610f5457829003601f168201915b50505050508152602001600282018054600181600116156101000203166002900480601f0160208091040260200160405190810160405280929190818152602001828054600181600116156101000203166002900480156110135780601f10610fe857610100808354040283529160200191611013565b820191906000526020600020905b815481529060010190602001808311610ff657829003601f168201915b50505050508152602001600382018054600181600116156101000203166002900480601f0160208091040260200160405190810160405280929190818152602001828054600181600116156101000203166002900480156110b55780601f1061108a576101008083540402835291602001916110b5565b820191906000526020600020905b81548152906001019060200180831161109857829003601f168201915b50505050508152602001600482018054600181600116156101000203166002900480601f0160208091040260200160405190810160405280929190818152602001828054600181600116156101000203166002900480156111575780601f1061112c57610100808354040283529160200191611157565b820191906000526020600020905b81548152906001019060200180831161113a57829003601f168201915b505050505081526020016005820160009054906101000a900463ffffffff1663ffffffff1663ffffffff1681526020016005820160049054906101000a900463ffffffff1663ffffffff1663ffffffff168152505090508060200151945080606001519350806080015192508060a0015163ffffffff169150509193509193565b6000803073ffffffffffffffffffffffffffffffffffffffff1631915060055490509091565b6000809054906101000a900473ffffffffffffffffffffffffffffffffffffffff1681565b60028181548110151561123257fe5b90600052602060002090016000915090508054600181600116156101000203166002900480601f0160208091040260200160405190810160405280929190818152602001828054600181600116156101000203166002900480156112d75780601f106112ac576101008083540402835291602001916112d7565b820191906000526020600020905b8154815290600101906020018083116112ba57829003601f168201915b505050505081565b60055481565b6001818154811015156112f457fe5b90600052602060002090600602016000915090508060000160009054906101000a900473ffffffffffffffffffffffffffffffffffffffff169080600101908060020190806003019080600401908060050160009054906101000a900463ffffffff16908060050160049054906101000a900463ffffffff16905087565b6000809054906101000a900473ffffffffffffffffffffffffffffffffffffffff1673ffffffffffffffffffffffffffffffffffffffff163373ffffffffffffffffffffffffffffffffffffffff161415156113cd57600080fd5b600073ffffffffffffffffffffffffffffffffffffffff168173ffffffffffffffffffffffffffffffffffffffff161415151561140957600080fd5b8073ffffffffffffffffffffffffffffffffffffffff166000809054906101000a900473ffffffffffffffffffffffffffffffffffffffff1673ffffffffffffffffffffffffffffffffffffffff167f8be0079c531659141344cd1fd0a4f28419497f9722a3daafe3b4186f6b6457e060405160405180910390a3806000806101000a81548173ffffffffffffffffffffffffffffffffffffffff021916908373ffffffffffffffffffffffffffffffffffffffff16021790555050565b602060405190810160405280600081525090565b815481835581811511611508576006028160060283600052602060002091820191016115079190611619565b5b505050565b828054600181600116156101000203166002900490600052602060002090601f016020900481019282601f1061154e57805160ff191683800117855561157c565b8280016001018555821561157c579182015b8281111561157b578251825591602001919060010190611560565b5b50905061158991906116cd565b5090565b602060405190810160405280600081525090565b60e060405190810160405280600073ffffffffffffffffffffffffffffffffffffffff1681526020016115d26116f2565b81526020016115df6116f2565b81526020016115ec6116f2565b81526020016115f96116f2565b8152602001600063ffffffff168152602001600063ffffffff1681525090565b6116ca91905b808211156116c657600080820160006101000a81549073ffffffffffffffffffffffffffffffffffffffff021916905560018201600061165f9190611706565b60028201600061166f9190611706565b60038201600061167f9190611706565b60048201600061168f9190611706565b6005820160006101000a81549063ffffffff02191690556005820160046101000a81549063ffffffff02191690555060060161161f565b5090565b90565b6116ef91905b808211156116eb5760008160009055506001016116d3565b5090565b90565b602060405190810160405280600081525090565b50805460018160011615610100020316600290046000825580601f1061172c575061174b565b601f01602090049060005260206000209081019061174a91906116cd565b5b505600a165627a7a723058209e998a659cb0cf25f832b7d8765ea50c60a8e094116f995489f4013235c272a90029",
  "source": "pragma solidity ^0.4.14;\n\nimport './Ownable.sol';\n\ncontract Here is Ownable {\n    \n    struct Place{\n        address user_id;\n        string content;\n        string _to;\n        string photo;\n        string location;\n        uint32 createTime;\n        uint32 status;\n    }\n    \n    Place[] public places;\n    string[] public photos;\n    mapping (uint => address) public placeToOwner;\n    mapping (address => uint) ownerPlaceCount;\n    uint public totalPlace;\n    \n    event NewPlace(uint _id, string _content, string _to, string _photo, string _location);\n    \n    function _createPlace(string _content, string _to, string _photo, string _location, address _id) returns(uint id){\n        id = places.push(Place(_id, _content, _to, _photo, _location, uint32(now), 0)) - 1;\n        placeToOwner[id] = msg.sender;\n        ownerPlaceCount[msg.sender]++;\n        totalPlace ++;\n        NewPlace(id, _content, _to, _photo, _location);\n    }\n    \n    function checkInfo() returns (uint balance, uint placeCount) {\n        balance = this.balance;\n        placeCount = totalPlace;\n    }\n\n    function checkPlace(uint index) returns (string content, string photo, string location, uint createTime) {\n        Place memory myPlace = places[index];\n\n        content = myPlace.content;\n        photo = myPlace.photo;\n        location = myPlace.location;\n        createTime = myPlace.createTime;\n    }\n\n    function getPlaceByOwner(address _owner) returns(uint[]) {\n        uint[] memory result = new uint[](ownerPlaceCount[_owner]);\n        uint counter = 0;\n        for (uint i = 0; i < places.length; i++) {\n          if (placeToOwner[i] == _owner) {\n            result[counter] = i;\n            counter++;\n          }\n        }\n        return result;\n    }\n}\n",
  "sourcePath": "/Users/client/smartConstruct/HereAndNow/contracts/Here.sol",
  "compiler": {
    "name": "solc",
    "version": "0.4.19+commit.c4cbbb05.Emscripten.clang"
  },
  "schemaVersion": "2.0.0",
  "updatedAt": "2018-07-29T05:06:03.795Z"
}